:020000040800F2
:10000000100E0020C1010008A1420008313600088E
:1000100059400008590D0008694A00080000000016
:100020000000000000000000000000009D430008E8
:100030008514000800000000A34200089F43000848
:10004000DB010008DB010008DB010008DB01000820
:10005000DB010008DB010008DB010008DB01000810
:10006000DB010008DB010008DB010008DB01000800
:10007000DB010008DB010008DB010008DB010008F0
:10008000DB010008DB010008DB010008DB010008E0
:10009000DB010008DB010008DB010008DB010008D0
:1000A000DB010008DB010008DB010008DB010008C0
:1000B000DB010008DB010008DB010008DB010008B0
:1000C000DB010008DB010008DB010008DB010008A0
:1000D000DB010008DB010008DB010008DB01000890
:1000E000DB010008DB010008DB010008DB01000880
:1000F000DB010008DB010008DB010008DB01000870
:10010000DB010008DB010008DB010008DB0100085F
:10011000DB010008DB010008DB010008DB0100084F
:10012000C9130008DB010008D5130008DB01000833
:10013000DB010008DB010008DB010008DB0100082F
:10014000DB010008DB010008DB010008DB0100081F
:10015000DB010008DB010008DB010008DB0100080F
:10016000DB010008DB010008DB010008DB010008FF
:10017000DB010008DB010008DB01000800000000D3
:10018000DB010008DB010008DB010008DB010008DF
:10019000DB010008DB010008DB010008DB010008CF
:1001A000DB010008DB010008DB010008DFF80CD0F0
:1001B00000F092FB00480047F16E0008100E00208E
:1001C0000648804706480047FEE7FEE7FEE7FEE7F1
:1001D000FEE7FEE7FEE7FEE7FEE7FEE7194400085C
:1001E000AD0100082DE9F05F0546002092469B46D0
:1001F00088460646814640241BE02846414647463D
:10020000224600F09CFA53465A46C01A914110D338
:1002100011461846224600F083FA2D1A67EB0108B2
:100220004F4622460120002100F07AFA17EB000920
:100230004E41201EA4F10104DFDC484631462A4627
:100240004346BDE8F09FD2B201E000F8012B491E01
:10025000FBD270470022F6E710B513460A46044663
:100260001946FFF7F0FF204610BD421C10F8011B95
:100270000029FBD1801A70472DE9FE4F804681EAA4
:100280000300C00F0C46009021F0004123F0004510
:10029000B8EB0200A94105D24046214690461C46D3
:1002A0000B46024623F00040104347D0270DC7F30A
:1002B0000A00C3F30A510290401A019040286BDAF9
:1002C000C3F3130040F4801B0098924620B1002332
:1002D000D2EB030A63EB0B0B01985946C0F14002C5
:1002E000504600F01DFA06460D4650465946019A02
:1002F00000F035FA10EB08006141002487EA115242
:1003000084EAE7731A4340D0009A62B3019A012A43
:100310004FEA075215DC001B61EB02014FF000426F
:1003200002EA0752CDE90042001C41F58011324635
:100330002B4600F06CFA03B0BDE8F08F4046214632
:10034000F9E7001B61EB0201001C41F58013001866
:100350005B412018A2F5001747EB030140EAD57076
:10036000B6196D4111E06D084FEA360645EAC075D1
:100370004FEA0752001B61EB0201001C41F580119E
:1003800049084FEA30000019514132462B4603B06C
:10039000BDE8F04F00F02CBA009801224000002385
:1003A000D0EB020263EBE073009821464FEAE07461
:1003B000B8EB000061EB0401E9E783F000435BE781
:1003C00081F0004158E72DE9FE4F81EA030404F073
:1003D000004421F0004100944FF0000B23F0004353
:1003E00050EA01045ED052EA03045BD0C3F30A541E
:1003F000C1F30A552C44A4F2F3340194A0FB025437
:10040000C1F3130141F48011C3F3130343F48013C8
:1004100001FB024400FB034E840A970A44EA81541C
:1004200047EA8357A4FB076802958D0A05FB0785F9
:100430004FEA932C04FB0C542705029D4FEA065803
:1004400047EA1637B5EB08056EEB070C870E920EE0
:1004500047EA811742EA8312A7FB0201B6EB0B01C0
:1004600064EB00042B0D43EA0C335E1844EB1C5084
:10047000DA465146E7FB0201C5F313044FEA0B339A
:1004800043EA14534FEA0432019C43EA0603A4F101
:100490000C040294009CCDE900B400F0B8F903B05C
:1004A000BDE8F08F00200146F9E72DE9F04D81EA23
:1004B000030404F0004B21F0004514464FF0000AFD
:1004C00023F0004150EA050220D054EA01021DD079
:1004D000C5F30A570246C5F31303C1F31300C1F372
:1004E0000A5640F4801543F48013A7EB0608101B4E
:1004F000D64608F2FD3873EB050002D308F1010877
:1005000001E092185B41B8F1000F03DA00200146C8
:10051000BDE8F08D00204FF48011064684460EE0C1
:10052000171B73EB050705D3121B63EB050306438B
:100530004CEA010C49084FEA300092185B4150EA3E
:100540000107EDD152EA030012D082EA040083EAE7
:100550000501084305D0101BAB4106D20122002340
:1005600006E000224FF0004302E06FF0010253105A
:100570001AEB06004CEB085110EB0A0041EB0B01A3
:10058000BDE8F04D00F034B90EB5C10F80EAE0705F
:100590000844CA07002140F233438DE80E000A46A2
:1005A0000B4600F034F903B000BD0EB540F2334104
:1005B00002910021CDE900110A460B4600F027F90F
:1005C00003B000BD70B5C1F30A5201F0004500242C
:1005D000C1F3130140F2FF3341F480119A4201DA72
:1005E000002070BD40F233439A42A2F2334203DC52
:1005F000524200F0A4F800E090402C43F1D0404279
:1006000070BDC1F30A5210B5C1F3130140F2FF33BC
:1006100041F480119A4201DA002010BD40F23343C8
:100620009A42A2F2334203DC524200F088F810BD35
:10063000904010BD00F0004230F000400AD0C10DE3
:1006400001F56071C0F3160042EA0151C20840078B
:1006500011437047002001467047000030B5041E6A
:1006600071F1000404DB4FF00044404264EB0101EF
:10067000141E73F1000405DB1C464FF00043524288
:1006800063EB04038B4208BF824230BD30B5041EC9
:1006900071F1000404DB4FF00044404264EB0101BF
:1006A000141E73F1000405DB1C464FF00043524258
:1006B00063EB0403994208BF904230BD01F0004350
:1006C00030B421F0004150EA010206D00A0DA2F533
:1006D0006072C1F31301002A02DC30BC00207047B5
:1006E000440F44EAC104C100E01830BC00EBC25022
:1006F00000F047B830B50B46014600202022012407
:1007000009E021FA02F59D4205D303FA02F5491BDF
:1007100004FA02F52844151EA2F10102F1DC30BDF5
:10072000202A04DB203A00FA02F1002070479140B1
:10073000C2F1200320FA03F3194390407047202AA6
:1007400004DB203A21FA02F00021704721FA02F37B
:10075000D040C2F120029140084319467047202A38
:1007600006DBCB17203A41FA02F043EAE07306E0D9
:1007700041FA02F3D040C2F12002914008431946E9
:1007800070470029A8BF7047401C490008BF20F0EF
:100790000100704710B4B0FA80FC00FA0CF050EA87
:1007A000010404BF10BC704749B1CCF1200421FA08
:1007B00004F411FA0CF118BF012121430843A3EB03
:1007C0000C01CB1D4FEA00614FEA102042BF002010
:1007D00010BC704700EBC35010440029A4BF10BCEC
:1007E0007047401C490008BF20F0010010BC704752
:1007F00010B5141E73F1000408DA401C41F1000129
:1008000092185B411A4301D120F0010010BD2DE97F
:10081000F04D92469B4611B1B1FA81F202E0B0FA76
:1008200080F220329046FFF77BFF04460F4640EAF5
:100830000A0041EA0B0153465A46084313D01146B9
:1008400053EA010019D0C8F140025046FFF777FF84
:1008500005460E46504659464246FFF761FF08439B
:1008600005D0012004E020463946BDE8F08D002087
:10087000054346EAE0762C4337430A986305E40AC9
:10088000A0EB08000022FD0A44EA47540A3002D5D2
:1008900000200146E9E7010510196941DDE9084535
:1008A00000196941BDE8F04DA2E770B521F00043A1
:1008B00003430CD0C1F30A550024D5EB040564EBC7
:1008C0000403D617AD1AB34102DB0020014670BD08
:1008D000201841EB025170BD064C074D06E0E06860
:1008E00040F0010394E8070098471034AC42F6D377
:1008F000FFF760FCA0780008C07800082DE9F04DF3
:1009000000231A461B1A8A4103DB00200146BDE87A
:10091000F08DC1F30A52C1F3130141F480154FF079
:10092000000BD10702D100186D41521E002704466A
:1009300040F2FF11384601EB620A3E46804602460D
:1009400000204FF48011FFF7FAFEC2197141BB1865
:1009500046EB0100B4EB030C75EB000C04D3E41A76
:1009600065EB000517460E46241908F101006D419C
:1009700080463428E3DDF91946EB0600091BA8413F
:1009800003D24FF0FF32134601E0002213461BEB67
:10099000070046EB0A51BDE8F04DFFF729BF70B5DF
:1009A0008C1810F8015B15F0070301D110F8013B1A
:1009B0002A1106D110F8012B03E010F8016B01F8A1
:1009C000016B5B1EF9D12B0705D40023521E0DD4F9
:1009D00001F8013BFAE710F8013BCB1A921C03E047
:1009E00013F8015B01F8015B521EF9D5A142D8D37F
:1009F000002070BD10B50146806B026C12F0500FE4
:100A000005D0026CD20626D500F0E0FE10BD016CC8
:100A100041F40071016401688A6812F0405F17D1E7
:100A2000027EAAB9CA6A12F4700F02D08A6852050F
:100A30000ED44A6822F020024A60016C21F48071D1
:100A40000164016CC90403D4016C41F0010101642B
:100A500000F0BAFE10BD806BC26CBDE810400846C5
:100A6000104710B5806B40210164416C41F00401D6
:100A7000416400F0ABFE10BD10B5806B00F0A5FE28
:100A800010BD0000464910B54A6822F440324A6061
:100A90004A6843681A434A6001684A6822F48072CF
:100AA0004A6001684A68036942EA03224A600168B1
:100AB0004A6822F040724A6001684A6883681A43B3
:100AC0004A6001688A6822F400628A6001688A6864
:100AD000C3681A438A60816A6FF07062D14201680C
:100AE0008A6822F070628A6001688A680CD0836A22
:100AF0001A438A6001688A6822F040528A6001685D
:100B00008A68C36A1A4301E022F040528A60016891
:100B10008A6822F002028A6001688A68037E42EADB
:100B200043028A6090F82010002901684A680FD0BB
:100B300042F400624A6001684A6822F460424A60F6
:100B400001684A68174C436A04EB43331A4301E0D7
:100B500022F400624A600168CA6A22F47002CA6222
:100B60000168CA6A838B104C04EB03531A43CA62B0
:100B700001688A6822F400728A6001688A6890F8C5
:100B8000303042EA43228A6001688A6822F4806237
:100B90008A6001688A68406942EA8020886010BDE6
:100BA0000023014000E0FFFF0000F0FF0A48282179
:100BB00000F8221F817108214170C1714FF47A71D0
:100BC0004182C182C821818201831E21817001720C
:100BD0000A21C17041727047000000202DE9F041E8
:100BE00054482DED048B0668534D544FA5F5807481
:100BF000AE65696EE07F4FF096088E4200DA10B95C
:100C00008E4250DD78BBA07F68B300EE106AF8EE2C
:100C1000C00A9FED4B1AB7EE000A00EE810A10EEF3
:100C2000100AFFF707FD41EC100B464880ED000B62
:100C300003F05AFF51EC100BFFF7C4FC2866E96D76
:100C40008E4202D1608E401C1CE0801E08281AD201
:100C5000DFE800F004070A0C0E101316A4F8328027
:100C600011E073200EE01EE082200BE08C2009E0F2
:100C7000D22007E04FF4967004E04FF4B97001E021
:100C80004FF4C87060863968B4F932008863EE6545
:100C900006F056FB51EC100BFFF7B3FC6865BDEC9A
:100CA000048BBDE8F08194F820009FED279BA0B154
:100CB000686DFFF77AFC41EC180B06F041FB53EC32
:100CC000182B51EC100BFFF778FB53EC192BFFF7A7
:100CD000C5FC02D84FF4AF7015E094F82100A8B11C
:100CE000686DFFF762FC41EC180B06F029FB53EC32
:100CF000182B51EC100BFFF760FB53EC192BFFF78F
:100D0000ADFC03D8404639688863C8E738680025D9
:100D100085632A4608210E4801F059F900224FF454
:100D200080410C4801F053F904F81E5FA570E5708E
:100D3000B5E7000024080040000100208C070020D7
:100D4000E3A59B3C000300200000000000C07240AF
:100D50000004024000180240FEE700002DE9F05FA9
:100D6000F04EF6EE080A2DED068B06F1800096EDAA
:100D7000060A20EE200A80ED0E0A9FEDEB1AA0F580
:100D8000C077C1EE000A97ED0C0AB8EEC00A20EE5B
:100D9000800ABDEEC00A10EE100A7060082801DA61
:100DA0000820706000F09EFA05F092FAFFF716FF37
:100DB000DE4C607808B105F03FFB94F82E00DFF8B8
:100DC00070B34FF4FA7A9FEDDBAB4FF001089FED63
:100DD000DB8BDC4D4FF0000900287CD0B069FFF7B9
:100DE00029FC41EC180BB06DFFF7DFFB41EC190B50
:100DF00006F0A6FA53EC192B51EC100BFFF7DDFAB5
:100E000053EC182BFFF742FC42D884F82E9084F85C
:100E10002F8084F80C9006F093FA51EC100BFFF73A
:100E2000F0FBB06584F80F80C6F868A095ED069BCE
:100E300051EC190BFFF742FCD7ED1D0A00EE100A2A
:100E4000A5F5C070F8EEE00A53EC1A2B70EE600ABC
:100E500096ED1C0AB8EEC00A80EE201A80ED1B1A2F
:100E600095ED000B51EC100BFFF71FFB95ED080BF8
:100E700041EC180B53EC192B51EC100BFFF79DFABA
:100E800053EC182BFFF711FBFFF7BBFBA4F8400056
:100E900095ED0C0B53EC102B95ED020B51EC100B58
:100EA000FFF7DCFB05D2E07A18B1B4F84400B06675
:100EB0000EE095ED0C0B53EC102B95ED020B51EC65
:100EC000100BFFF7E3FB03D8C6F868A084F80B907B
:100ED00094F8280000E07FE0FFF767FB95ED061B24
:100EE00053EC112BFFF7BAFB01D3E07E78B184F805
:100EF0001B8094F82800801FC0B206F051FABCEEA7
:100F0000C00ADBF8001010EE100A086404E0DBF8F9
:100F100000004FF4617101648B48B16E0068416359
:100F2000E07A002857D1B069FFF784FB9FED871B5B
:100F300053EC112BFFF747FA41EC180BB06DFFF79C
:100F400034FB41EC190B06F0FBF953EC192B51EC77
:100F5000100BFFF732FA53EC182BFFF797FB3AD838
:100F600095ED020B51EC100BFFF7A8FB95ED069BDE
:100F700008EE100A51EC190BFFF7A0FBD7ED1D0A84
:100F800000EE100A6748F8EEE00A803853EC1A2B9E
:100F900030EE600AC8EE000AC0ED1B0A95ED000BAA
:100FA00051EC100BFFF781FA41EC180BB86FFFF70B
:100FB000EBFA53EC192BFFF700FA53EC182BFFF761
:100FC00074FA41EC100B03F08FFD51EC100BFFF79E
:100FD00018FBA4F8400098E05B490968C1F834A008
:100FE000387806F0DDF9BCEEC00ADBF8001010EE30
:100FF000100A0864B06DFFF7D8FA41EC190B06F03F
:101000009FF953EC192B51EC100BFFF7D6F99FED1C
:10101000511B53EC112BFFF739FB12D8386DFFF73A
:10102000B3FA41EC100B3F48803090ED1E1B51ECA1
:10103000100B53EC112BFFF711FB02D8F868401C82
:10104000F860B246F069FFF7F5FA41EC190BB06DA4
:10105000FFF7ABFA41EC1A0B06F072F953EC1A2BBE
:1010600051EC100BFFF7A9F953EC192BFFF70EFB0E
:101070004BD884F82E8084F82F9095ED080B4E46BF
:1010800051EC100BFFF79EFAB8672648DAF870109B
:10109000803853EC182BC16095ED060B51EC100B0A
:1010A000FFF7F4FA07D895ED060B51EC100BFFF79C
:1010B00089FA786700E07E67207E617E884300D0F1
:1010C0002676667685ED088B95ED000B03F00CFD1A
:1010D00051EC100BFFF776FAB86685ED008B85EDC5
:1010E000028BCAF870605746454684F80C8006F0BB
:1010F00027F951EC100BFFF784FAB8652574E572F7
:1011000005F026F805F098F9E676207E002805D14E
:10111000BDEC068BBDE8F05F04F09CBFBDEC068B18
:10112000BDE8F09F80010020000070420000002018
:101130000C0700200000000000004E4000000000EE
:1011400000000000800200208C070020CDCCCCCC19
:10115000CCCCEC3F0000000000C062402DE9F0471D
:101160002DED028B00F0BEF805F0B2F8FFF736FD6A
:10117000524C607808B105F05FF9534E94F82E2078
:101180004F485049012706F5807900259AB3006839
:101190004FF41B724263096840F2EE200864B06DA0
:1011A000FFF703FA41EC180B06F0CAF853EC182BC2
:1011B00051EC100BFFF701F99FED441B53EC112B81
:1011C000FFF764FA13D884F82E5084F82F7006F0D5
:1011D000B7F851EC100BFFF714FAB06599ED060B58
:1011E00051EC100BFFF7EEF97063E7732573BDEC5C
:1011F000028BBDE8F087FFE7006845630868056477
:10120000B06DFFF7D2F941EC180B06F099F853ECEA
:10121000182B51EC100BFFF7D0F89FED2E1B53EC61
:10122000112BFFF733FAE2D884F82E7084F82F5090
:1012300099ED080B51EC100BFFF7C4F9DFF87CA017
:10124000B0460AF1800A0AF18001CAF87800306FCE
:10125000C86099ED060B51EC100BFFF7B3F9CAF813
:101260007400207E617E884300D025764E4699ED3D
:10127000000B03F039FC51EC100BFFF7A3F99FEDC5
:10128000170BCAF8680086ED080B86ED000B86ED9B
:10129000020B4646C8F8705006F052F851EC100B9D
:1012A000FFF7AFF9B0652774277304F051FFBDEC69
:1012B000028BBDE8F04705F0BFB800000000002039
:1012C0008C0700200C070020800100200000000097
:1012D00000409F40000000000040AF4000000000C0
:1012E0000000000010B506F0BFF803F0D7F92A4857
:1012F00029499FED2A2A4068803900EE100AC01D56
:101300009FED271AB8EEC00ADFED261ADFED260A98
:1013100081ED0F0A0B2190FBF1F124480B2937D204
:10132000DFE801F006091E2525252A2F2F2F2F0083
:101330004FF4FA7104E09FED1E1ADFED1E0A13E070
:1013400089B200EE101AF1EE040AB8EE400A30EE4F
:10135000600ABCEEC00A10EE101AA0F8441010BDCE
:101360009FED151ADFED150A40EE010A0BE000EEC5
:10137000021ABCEEC10A08E09FED111ADFED110A56
:10138000F2E740EE210ABCEEE00A10EE101AD7E7B1
:1013900040F2DA21D4E7000080010020F628843FE3
:1013A00048011F4440A41F3FD7832544000000206C
:1013B0007B831F409AD91644BA6B11408FD21744D1
:1013C0004BEA543F8FF22144014800F02FBB00004C
:1013D00058060020014800F029BB00008C090020BD
:1013E00001681823CAB2103AB2FBF3F2054B6FF34F
:1013F0000901032A9B5CC36500D9091D8165084664
:1014000070470000EA77000810B5014600208B699C
:101410008A6A4FF0C07453B1B3F5005F15D072B152
:10142000012A0CD0022A0AD0032A09D104E01AB1F9
:10143000012A06D0022A03D1C96AC90100D50120B8
:1014400010BDC96AA142FAD010BD002AF7D0012A06
:10145000F2D0022AF3D0032AF3D010BD30B50468CD
:10146000256825F480252560046863608368402B27
:10147000036803D099600068C26030BD9A6000685C
:10148000C16030BD70477047002229B101291DD0CD
:1014900002291ED04FF440720B2800D9001D0E49BE
:1014A0000B6823F440730B600B6813430B600A68EE
:1014B00022F0F8020A600A68022303EBC00002432C
:1014C0000A60086840F48030086070474FF480720A
:1014D000E2E74FF40072DFE7103C0240064A13686F
:1014E00023F44073136013681360136843F001031F
:1014F0001360017070470000103C0240094910B5AC
:101500000C6824F440740C600C6844F440740C6063
:101510000C6844F001040C600260BFF36F8F4360FD
:1015200010BD0000103C0240074A136823F44073CA
:101530001360136843F480731360136843F001036E
:101540001360018070470000103C0240074A136896
:1015500023F440731360136843F40073136013683B
:1015600043F001031360016070470000103C02402B
:101570001C490868C2061C4805D5C26942F0100221
:10158000C26110220A600A68920605D5C26942F05B
:101590000802C26120220A600A68520605D5C269A3
:1015A00042F00402C26140220A600A68120605D5B0
:1015B000C26942F00202C26180220A600A68D20552
:1015C00006D5C26942F00102C2614FF480720A601E
:1015D0000A68920705D5C26942F02002C261022062
:1015E000086070470C3C0240EC09002070B51149BE
:1015F00004460020C86100F0EFFC06460E4D09E0ED
:10160000601C07D024B100F0E7FC801BA04201D988
:10161000032070BD2868C003F2D42868C00701D039
:1016200001202860286810F4F970F2D0FFF7A0FFBD
:10163000012070BDEC0900200C3C024070B50C4646
:10164000054600F0BFFB02210B20FFF71DFF2246DD
:1016500000232946022000F077FBBDE8704000F02F
:1016600069BB000078B50024009490F83C20012A62
:1016700019D0012280F83C200A6807230568092A4E
:1016800013D9EE680A3A02EB420293409E43EE60A1
:101690000B788A680A3B03EB43039A400368DD68D2
:1016A0002A43DA6010E0022078BD2E6902EB420284
:1016B00093409E432E610B788A6803EB43039A4064
:1016C00003681D692A431A614A681F23072A13D237
:1016D00005686E6B521E02EB820293409E436E635E
:1016E0000A8893B20A79521E02EB82029340026882
:1016F000556B2B43536327E005680D2A12D22E6BDE
:10170000D21F02EB820293409E432E630B790A881C
:10171000DB1F92B203EB83039A4003681D6B2A43DD
:101720001A6311E0EE6A0D3A02EB820293409E4387
:10173000EE620B790A880D3B92B203EB83039A4069
:101740000368DD6A2A43DA621B4B0568194A9D4229
:101750000AD10D68122D07D1556825F40005556092
:10176000556845F48005556005689D421DD1134DAF
:101770000B68AB4201D0112B17D1536823F48003BF
:101780005360536843F4000353600968A9420CD1C5
:101790000B490C4A0968B1FBF2F101EB81014900E8
:1017A00000E0491E00910029FBD180F83C40002058
:1017B00078BD00000023014000200140120000100D
:1017C0002403002040420F0070477047704770B5F7
:1017D00004004FF0000503D0206C002610B107E094
:1017E000012070BD204600F01DF8666484F83C605E
:1017F000206CC00610D4206C20F4885040F0020009
:1018000020642046FFF73EF96664206C20F0020059
:1018100040F00100206400E0012584F83C60284687
:1018200070BD000070B586B0064614216846FEF70C
:1018300011FD2B49306888424FD12A4800250168A4
:1018400041F4807101600068264900F48070143909
:101850000590086840F004000860086800F0040083
:101860000590086840F001000860086800F0010079
:101870000590086840F0020008600868032400F042
:10188000020005903F208DE831006946164800F0BF
:10189000AFFAAA208DE831006946144800F0A8FA92
:1018A00001208DE831006946114800F0A1FA124C80
:1018B0001048C4E900050015A560C4E90350801074
:1018C0006561C4E9065025622046656200F07EF934
:1018D00008B1FFF7D8FDB463A66306B070BD000081
:1018E000002001404438024000080240000002404D
:1018F000000402401064024058060020F8B50E466D
:1019000000210446009190F83C00012807D00120F6
:1019100084F83C0020688368DB0702D011E00220D5
:10192000F8BD836843F0010383603748374B006894
:10193000B0FBF3F000EB400000E0401E00900028F8
:10194000FBD120688368DB075CD0236C40F2016523
:10195000AB4343F4807323644068400505D5206C95
:1019600020F4005040F480502064206CC00404D562
:10197000606C20F00600606400E0616484F83C1054
:10198000A16B2448224DC863A16B23480864A16B56
:101990002248C86421686FF022000860206841680E
:1019A00041F0806141602068816841F4807181600C
:1019B0002168134632464C31A06B00F071F968681B
:1019C0001749C006206806D088421BD1816811F0F3
:1019D000405F13D016E08842F8D0124A904203D1FB
:1019E000D1F80423D206F1D00F4A90420AD1D1F89F
:1019F000041301F01F011029E8D303E0816841F0CE
:101A0000804181600020F8BD2403002040420F0087
:101A100000230140F5090008790A0008630A00085C
:101A20000020014000210140002201402DE9F8433F
:101A300004464FF00009CDF8009063484FF416516A
:101A4000A56D0068B0FBF1F72E6894F85C100820D3
:101A500000FA01F131420FD021680A6852070BD514
:101A60000A6822F004020A6094F85C108840A860BA
:101A7000606D40F00100606594F85C104FF0010863
:101A800008FA01F0304208D021684969090604D5F6
:101A9000A860606D40F00200606594F85C1004205E
:101AA0008840304208D021680968890704D5A860B9
:101AB000606D40F00400606594F85C101020884070
:101AC000304218D021680968090714D5A860206839
:101AD0000168490304D50068000308D5A16C07E03C
:101AE0000168C90503D4016821F008010160216C77
:101AF00009B12046884794F85C1020208840304285
:101B000031D021680968C9062DD5A86094F8350040
:101B100005282068016806D0490347D500680003FE
:101B20001DD4616C1CE021F0160101602068416940
:101B300021F080014161206C08B9A06C20B12068BF
:101B4000016821F00801016094F85C103F20884092
:101B5000A86084F8349084F83580216D1FE0E16B33
:101B600009B120468847606D00282BD0606DC00702
:101B700014D0052084F835002068016821F00101A7
:101B800001600098401C0090B84203D820680068AB
:101B9000C007F6D184F8349084F83580E16C0029D0
:101BA00010D001B02046BDE8F04308470168C905E0
:101BB000D5D4016821F01001016084F8349084F8D4
:101BC0003580CCE7BDE8F883240300202DE9F041FF
:101BD000044600F001FA06465CB1002584F8345052
:101BE000022084F835002068016821F001010160BD
:101BF0000DE00120BDE8F08100F0EEF9801B052822
:101C000005D920206065032084F83500F2E72068BC
:101C10000068C007F0D12268116820480140D4E96B
:101C200001031843D4E90336334318436369184367
:101C3000A3691843E3691843236A18430843616A98
:101C4000042903D1D4E90B13194308431060206819
:101C50004069666A20F0070130460E4301270428D8
:101C60000CD1A06A0643E06A40B12046FFF7CCFBE6
:101C700020B14020606584F83570BAE7206846617D
:101C80002046FFF7ADFB94F85C203F219140816036
:101C9000656584F835700020ACE700003F8010F0E7
:101CA0002DE9F0410446866D90F8340000250128A6
:101CB0000DD0012084F8340094F835700020012FF5
:101CC00007D084F8340002252846BDE8F0810220C0
:101CD000FBE7022784F8357060652046FFF7BEFBFE
:101CE00094F85C103F208840B0602068016841F0A3
:101CF00016010160206C20B12068016841F00801E4
:101D000001602068016841F001010160DCE700002A
:101D100070B5044600F060F90546601C02D0044826
:101D20000078044400F058F9401BA042FAD370BD7B
:101D3000180300200348016841F0004101600020C1
:101D400070470000103C02402DE9F0471B4E05464D
:101D50001446307E1F468946012808D0012030767F
:101D60004CF250384046FFF741FC18B114E0022015
:101D7000BDE8F0879DB1012D16D0022D19D0224665
:101D80003B464846FFF7BAFB4046FFF72FFC0C499D
:101D90000A6822F001020A6000213176E8E7E1B228
:101DA0004846FFF79BFBEFE7A1B24846FFF7BCFBB5
:101DB000EAE721464846FFF7C9FBE5E7EC090020C2
:101DC000103C0240074900200A68002A09DA054A47
:101DD000054B0C3A1360054B13600968002900DAC3
:101DE00001207047103C024023016745AB89EFCDCD
:101DF0002DE9F84F00224FF0010803254FF00F0E98
:101E00000B6808FA02F42340A3426ED14E68012EFB
:101E100005D0022E03D0112E01D0122E12D18668C9
:101E20004FEA420C05FA0CF7BE43CF6807FA0CF7ED
:101E3000374387604668A6430C79C4F30014944086
:101E400034434460C668570005FA07FC8C6826EAEC
:101E50000C06BC403443C4604C68022C01D0122CE8
:101E600013D1D40800EB8404A346D4F8209054077F
:101E70004FEAD46A0EFA0AF629EA06090E6906FA4A
:101E80000AF646EA0906CBF8206004680E7924EACF
:101E90000C0406F00306BE40264306604C68E400CE
:101EA0006FD53B4C266846F480462660246822F0B5
:101EB000030604F480440094364C3444A446D4F819
:101EC00008489607360F0EFA06F7BC43324FB84261
:101ED00001D100272EE0314FB84201D1012729E07E
:101EE0002F4FB84202D1022724E04AE02D4FB842DA
:101EF00001D103271EE02C4FB84201D1042719E07D
:101F00002A4FB84201D1052714E0294FB84201D128
:101F100006270FE0274FB84201D107270AE0264FD6
:101F2000B84201D1082705E0244FB84201D1092762
:101F300000E00A27B7402743CCF80878204E3468E1
:101F40004F689C43FF0300D51C4334601C4E361D74
:101F500034684F689C43BF0300D51C433460184E5F
:101F6000083634684F689C43FF0200D51C43346038
:101F7000134E0C3634684F689C43BF0200D51C4397
:101F80003460521C102AFFF43BAFBDE8F88F00000C
:101F9000443802400030014000000240000402408A
:101FA00000080240000C02400010024000140240F1
:101FB00000180240001C02400020024000240240A1
:101FC000003C01400069084000D0012070470AB180
:101FD000816170470904FBE7014880687047000091
:101FE0001803002090F83D20202A01D002207047DD
:101FF000242280F83D200268136823F00103136057
:102000000268536A23F0100353620268536A0B4359
:10201000536201680A6842F001020A60202180F8D8
:102020003D100020704790F83D20202A01D002206A
:102030007047242280F83D200268136823F00103D2
:10204000136003685A6A22F00F020A4391B2596280
:1020500001680A6842F001020A60202180F83D1000
:102060000020704770B5040025D094F83D0000258D
:1020700020B984F83C50204600F03EFA242084F831
:102080003D002068016821F00101016020680168BD
:1020900041F4004101602068016821F400410160C1
:1020A00000F0A2FB4D4A6168914201D84C4900E022
:1020B0004C49884201D2012070BD4B492368B0FBD6
:1020C000F1F15E6826F03F060E435E60636893425E
:1020D00006D94FF4967359434FF47A73B1FBF3F179
:1020E0002368491C1E6A26F03F0631431962616865
:1020F000914210D84900401EB0FBF1F2521CC2F3CD
:102100000B02042A01D2042022E0B0FBF1F0401CB3
:10211000C0F30B001CE0A268F2B301EBC10303EBB8
:102120000116431EB3FBF6F35B1C43F480431B050F
:1021300049D092B301EBC10202EB0111401EB0FB8A
:10214000F1F0401CC0F30B0040F4804040F400402C
:102150002168CA694CF6FF739A431043C861D4E9F9
:10216000071001432068026822F0C0021143016099
:10217000D4E9030101432068826848F2FF339A439F
:1021800011438160D4E9050108432168CA6822F03F
:10219000FF021043C86001E00EE016E0206801680D
:1021A00041F0010101602564202084F83D00256391
:1021B00084F83E50002070BD01EB4106431EB3FB86
:1021C000F6F35B1CB3E70120C2E701EB4101401EBF
:1021D000B0FBF1F0401CC0F30B00B7E7A086010094
:1021E00080841E0000093D0040420F002DE9F84F99
:1021F0001F4690468A460446DDF82890FFF7ECFE1D
:10220000054694F83D00202875D1192301226C4918
:102210002046009501F00EFB0028F5D194F83C0013
:10222000012868D0012084F83C0020680168C907B3
:1022300003D1016841F0010101602068016821F4C7
:1022400000610160222084F83D00102084F83E00E7
:1022500000262664C4F824806785608D208559484F
:10226000E0622B464A465146204601F0F9F9002823
:1022700078D1208D544F68B1012814D002282068ED
:10228000016816D041F4806101602068416980696D
:10229000009087E02068416981690091016841F4FC
:1022A000007101607EE02068016821F480610160B6
:1022B000F0E721F4806101602068016841F4006169
:1022C000E2E7032848D801280AD0022814D04B4658
:1022D000002239462046009501F0ACFAD8BB27E031
:1022E0002A464946204601F024FBA0BB206800692D
:1022F000616A08704DE061E04B4600223946204695
:10230000009501F097FA30BB2068016841F4007134
:10231000016020680069616A0870606A401C606240
:10232000218D491E2185618D491E618521682EE020
:102330002068016821F48061016020680069616A99
:102340000870606A401C6062208D401E2085608D90
:10235000401E6085D0E705E02A464946204601F048
:10236000E8FA10B10120BDE8F88F20680069616AC1
:102370000870606A401C6062218D491E2185618D54
:10238000491E618521684A69D24352070AD4096906
:102390000170606A401C6062208D401E2085608D47
:1023A000401E6085208D00288BD1202084F83D00C0
:1023B00084F83E6084F83C600020D4E70220D2E735
:1023C000020010000000FFFF040001002DE9F84F9B
:1023D0001F4690468A460446DDF82890FFF7FCFD2C
:1023E000054694F83D0020287FD119230122404959
:1023F0002046009501F01EFA002876D194F83C00A2
:10240000012872D0012084F83C0020680168C907C7
:1024100003D1016841F0010101602068016821F4E5
:1024200000610160212084F83D00102084F83E0006
:1024300000262664C4F824806785608D20852D4899
:10244000E0622B464A465146204601F07FF990B99A
:10245000206841698069009036E02A464946204656
:1024600001F09AFA50B1206C042804D12068016868
:1024700041F4007101600120BDE8F88F606A2168B5
:1024800000780861606A401C6062618D491E618548
:10249000218D491E89B2218522685369DB435B0780
:1024A0000BD451B100781061606A401C6062608D8D
:1024B000401E6085208D401E20852A4649462046C4
:1024C00001F092F90028CED1208D0028C5D154F812
:1024D0003D0B016841F400710160202004F81E09E1
:1024E000E67766770020C7E7FFE70220C4E7000031
:1024F000020010000000FFFFF0B587B00446142171
:102500006846FDF7A7FE1A49206888422DD1194870
:10251000016841F004010160016801F004010591C6
:10252000016841F0010101600068122400F001001F
:1025300005904FF400700125032604278DE8F10073
:1025400069460D48FFF754FC28028DE8F100694602
:102550000A48FFF74DFC07481030016841F40001BC
:102560000160006800F40000059007B0F0BD0000B5
:10257000005C004030380240000802400000024089
:102580000248816802781144816070471803002076
:102590000B4810B5016841F400710160016841F415
:1025A00080610160016841F480710160032000F0E6
:1025B0006FF8002000F006F800F024F8002010BDAD
:1025C000003C024070B50D4D04464FF47A712878F6
:1025D000B1FBF0F00A490968B1FBF0F000F004FB30
:1025E00048B9102C07D200222146501E00F030F8C6
:1025F00000206C6070BD012070BD00001803002039
:10260000240300200A4808B5016841F480410160B4
:10261000006800F4804000900548001F016841F008
:1026200080510160006800F08050009008BD0000FB
:1026300044380240002809DB00F01F0201219140CC
:102640004009800000F1E020C0F800117047000050
:10265000F0B40E4B1B680C46C3F30223C3F107050D
:10266000042D00D90425191D072901D2002300E0FB
:10267000DB1E012606FA05F1491E214099409E40C5
:10268000761E16403143F0BC02F01CBA0CED00E09F
:10269000064900F0070208684FF6FF03184040EAB9
:1026A0000220034A10430860704700000CED00E070
:1026B0000000FA052DE9F0470E46050065D0DFF869
:1026C0001481D8F80000F7B200F00F00B04207D232
:1026D00088F80070D8F8000000F00F00B04254D124
:1026E00028683D4C810712D5400703D5206840F487
:1026F000E05020602878000703D5206840F460404F
:1027000020602068A96820F0F00008432060287845
:10271000C0072DD0304968680839012812D0022836
:1027200013D0032811D00968890700292DDA216800
:1027300021F0030101432160FFF74EFC814641F285
:10274000883A0EE009688903EFE709688901ECE738
:10275000FFF742FCA0EB0901514502D90320BDE877
:10276000F0872068696800F00C00B0EB810FEFD1B2
:10277000D8F80010404601F00F01B14207D90770A8
:10278000006800F00F00B04201D00120E7E7287890
:10279000400705D52068E96820F4E0500843206030
:1027A0002878000706D52068296920F4604040EAAF
:1027B000C100206000F038F82168084AC1F3031115
:1027C000515CC8400649086006480068FFF7FAFEF9
:1027D0000020C4E7003C024008380240F2770008BD
:1027E000240300201C0300200448054900680968F0
:1027F000044AC1F38221515CC84070472403002081
:102800000838024002780008044805490068096851
:10281000044AC1F34231515CC84070472403002090
:102820000838024002780008154810B5006810F01A
:102830000C02144813D01449042A0FD0082A0ED1D0
:102840000F4C241F2268236802F03F025B0207D569
:102850002068C0F38810A0FB010106E0084610BD07
:102860002168C1F38811A1FB00010023FDF7BAFC28
:102870002168C1F30141491C4900B0FBF1F010BDD2
:10288000083802400024F40040787D012DE9F84F1B
:1028900004006ED02078DFF83C93C007A9F104054E
:1028A0004AD009F104000168C1F38101012908D06F
:1028B0000068C0F3810002280AD1D9F80000400264
:1028C00006D52868800337D560680028E1D033E05A
:1028D0006068B0F5803F10D0B0F5A02F286810D008
:1028E00020F480302860286820F480202860606808
:1028F000A8B1FFF771FB06460DE0286840F4803070
:10290000F4E740F480202860F7E700BFFFF764FB9E
:10291000801B642873D828688003F7D50CE0FFF784
:102920005BFB064605E000BFFFF756FB801B6428F3
:10293000F0D828688003F7D42078DFF89C828007DD
:102940004FF0000A3ED5A348001D016811F00C0F9E
:1029500008D00068C0F3810002280BD1D9F800002C
:10296000400207D42868800716D5E068012800D106
:1029700012E02BE1E068B8B10120C8F80000FFF7D1
:102980002BFB064605E000BFFFF726FB801B022855
:10299000C0D828688007F7D52868216920F0F8009A
:1029A00040EAC10028600DE0C8F800A0FFF714FB62
:1029B000064604E0FFF710FB801B02281FD828689A
:1029C0008007F7D42078000722D5824E83486169BA
:1029D000703671B101210160FFF7FEFA074604E08D
:1029E000FFF7FAFAC01B022809D830688007F7D52C
:1029F0000EE0C0F800A0FFF7EFFA074605E082E01E
:102A0000FFF7EAFAC01B02287DD830688007F7D4A8
:102A10002078400768D5DFF8BCB100270BF13C0BEC
:102A2000DBF80000C0000BD4DBF8001041F080514F
:102A3000CBF80010DBF80000012700F08050009078
:102A4000674E3068C00510D4306840F48070306044
:102A5000FFF7C2FA009005E0FFF7BEFA0099401AAE
:102A6000022850D83068C005F6D55A4EA0686C369A
:102A700001280FD00528306810D020F00100306008
:102A8000306820F004003060A068B8B1FFF7A4FA05
:102A900000900FE0306840F00100F4E740F00400DF
:102AA0003060F7E7FFF798FA0099411A41F2883051
:102AB000814266D830688007F4D50EE0FFF78CFAC3
:102AC000009007E0FFF788FA0099411A41F2883038
:102AD000814256D830688007F4D42FB1DBF800105B
:102AE00021F08051CBF80010A069C8B33949091D05
:102AF0000968C1F3810102294AD00228504607D053
:102B0000C8F8600000E03CE0FFF766FA04463BE0EE
:102B10004746C8F86000FFF75FFA064605E000BFC9
:102B2000FFF75AFA801B02282BD828688001F7D4B7
:102B3000D4E907010843A16A2A4A490802EB014186
:102B4000626A41EA8211084394F82C1040EA01615C
:102B5000C9F8001001203866FFF73EFA044606E087
:102B600036E000BFFFF738FA001B022809D82868B2
:102B70008001F7D52CE000BFFFF72EFA001B0228DA
:102B800002D90320BDE8F88F28688001F4D41FE043
:102B90000128F7D0D9F80000E26900F480019142E1
:102BA00014D1226A00F03F0191420FD147F6C07163
:102BB000626A0140914209D1A26A00F44031914217
:102BC00004D1E16A00F07060884201D00120D9E7A9
:102BD0000020D7E70438024000004742800E4742F9
:102BE000007000400000FFFF10B5401EB0F1807F74
:102BF00001D3012010BD4FF0E02460610F21601768
:102C000001F060FF0020A06107202061002010BDBE
:102C100010B590F83C20012A22D0012280F83C20F7
:102C2000CA688C6822F4407222434C6822F48062A5
:102C300022430C6822F4006222430C6922F4805281
:102C400022434C6922F400522243C969002322F432
:102C500080420A4301684A6480F83C30002010BD7D
:102C6000022010BD70B590F83C20012A32D001241A
:102C700080F83C40022280F83D2003685A689D6835
:102C800022F070060A6832435A60134B02689A4277
:102C900014D0B2F1804F11D0104B9A420ED0104B8D
:102CA0009A420BD00F4B9A4208D00F4B9A4205D054
:102CB0000E4B9A4202D00E4B9A4204D1496825F03D
:102CC00080031943916080F83D40002180F83C105A
:102CD000084670BD022070BD0000014000040040A5
:102CE00000080040000C004000040140004001408A
:102CF0000018004010B5040003D094F83D0010B156
:102D000007E0012010BD002084F83C00204600F0C0
:102D10000DF8022084F83D00211D206801F08AFB97
:102D2000012084F83D00002010BD000008B5134AC2
:102D300001681348914207D1016841F400310160F4
:102D4000006800F4003009E00E4A914208D10168A1
:102D500041F480210160006800F48020009008BDEB
:102D600009488142FBD10648001F016841F4807187
:102D70000160006800F48070F0E70000004401404A
:102D80004438024000480140002000402DE9F04155
:102D90000D46040003D094F83D0018B108E001206E
:102DA000BDE8F081002084F83C00204600F03AF8AD
:102DB000022084F83D002068816844F207029143B4
:102DC0008160211D206801F035FB226890689169BF
:102DD000166A2B68AF69034340F20330814341EA2E
:102DE0000721A868EF6908434FF6FC418843E9686A
:102DF00040EA0720014328692F6A000140EA0730B2
:102E0000084369686D6926F0AA0646EA0515294354
:102E100093602268906120680162012084F83D007F
:102E20000020BDE730B587B0044614216846FDF7A1
:102E300011FA224D236800202149C0240222AB420E
:102E40001AD11F4B10331D6845F004051D601B6827
:102E500003F0040305930B6843F002030B60096859
:102E6000009401F0020105910121CDE90121CDE994
:102E70000302694613481CE0134DAB421BD1104BB3
:102E800014331D6845F002051D601B6803F0020342
:102E900005930B6843F004030B6009680094CDE9C7
:102EA0000120039001F004010320CDE904016946EB
:102EB0000648FEF79DFF07B030BD00000008004047
:102EC0003038024000040240000401400008024083
:102ED00010B50446006891B1042904D001220021F4
:102EE00001F00CFB206801225FF0040101F006FBF9
:102EF0002068016841F001010160002010BD01223D
:102F00000021F3E72DE9F04186B00446142168461C
:102F1000FDF7A0F9594822680024594902250126E5
:102F200082420ED1086840F01000086008686946C7
:102F300000F01000059068030090CDE9015451485D
:102F400045E0514FDFF84481B2F1804F1FD0504827
:102F50004026824243D1086840F0020008600868B9
:102F600000F002000590086840F001000860086861
:102F7000694600F00100059020200090CDE9015441
:102F80004046CDE90345FEF733FF009634E008687C
:102F900040F001000860086800F001000590086832
:102FA00040F00200086008680096CDE9015400F086
:102FB0000200CDE90460694603943846FEF718FF25
:102FC0004FF440600090CDE9015469464046CDE998
:102FD000034600BFFEF70CFF06B0BDE8F0812D48A8
:102FE000824210D1086840F001000860086800F0D3
:102FF0000100059004200090CDE90154694638464F
:10300000CDE90345E6E7244F03232448BA420DD116
:103010000A6842F020020A6009680096CDE901546E
:1030200001F02001CDE90431039424E01C4EB242AA
:103030000FD10A6842F020020A60096801F02001FD
:10304000059180210091CDE90154CDE90343694602
:10305000C0E7144B9A42BFD10A6842F020020A60CE
:10306000096801F02001059159150091CDE901543D
:103070000921CDE903416946ACE7000000000140A9
:1030800030380240001002400000024000040240BC
:1030900000040040000C00400044014000140240C5
:1030A000004801400020004070B5044690F83C0004
:1030B0000D4601280DD0012684F83C60022084F8DA
:1030C0003D0042B1042A18D0082A2AD00C2A4DD13A
:1030D00039E0022070BD206801F01EFA2068816985
:1030E00041F0080181612068816921F0040181615A
:1030F000206881692A69114311E0206801F03CFAD7
:103100002068816941F4006181612068816921F44E
:1031100080618161206881692A6941EA02218161B7
:1031200024E0206801F05EFA2068C16941F00801DE
:10313000C1612068C16921F00401C1612068C169D1
:103140002A69114311E0206801F080FA2068C16902
:1031500041F40061C1612068C16921F48061C161ED
:103160002068C1692A6941EA0221C16184F83D6091
:10317000002084F83C0070BD10B5040003D094F822
:103180003D0010B107E0012010BD002084F83C0094
:10319000204600F00DF8022084F83D00211D206833
:1031A00001F048F9012084F83D00002010BD000026
:1031B00008B501681448814201D1144810E0134851
:1031C000001FB1F1804F0BD0114A914210D101681C
:1031D00041F002010160006800F00200009008BDAB
:1031E000016841F001010160006800F00100F5E7AD
:1031F000084A9142F3D1016841F00801016000687A
:1032000000F00800EAE700000000014044380240F6
:1032100000040040000C004010B504460068012284
:1032200001F06CF90B492068884202D00A498842B3
:1032300003D1416C41F4004141642068816801F090
:103240000701062903D0016841F001010160002057
:1032500010BD00000000014000040140704770B53F
:10326000040004D094F83900002510B106E00120D4
:1032700070BD84F83850204600F022F8242084F8ED
:1032800039002068C16821F40051C160204601F076
:1032900025FB2068016921F49041016120684169A2
:1032A00021F02A0141612068C16841F40051C160E8
:1032B000E563202084F8390084F83A00002070BDCE
:1032C00070B586B0054614216846FCF7C3FF214956
:1032D000286888423CD120480026016841F010014E
:1032E0000160006800F0100005901B481438016868
:1032F00041F0010101600068694600F0010005909D
:103300004FF4C06000900220CDE901060320039035
:10331000072004901148FEF76BFD124C1048206006
:103320004FF00060C4E901064014C4E90360800066
:1033300060618000A0618011E0614002C4E908067C
:103340002046FEF743FC08B1FEF79DF86C63A563C9
:1033500006B070BD00100140443802400000024039
:10336000406402408C090020F8B5044690F83A0009
:1033700020283CD1C1B3BAB394F83800012836D024
:10338000012084F83800A162A2850025E56322208F
:1033900084F83A00636B1748D863636B1648186467
:1033A000636B1648D864606B134605650846666B08
:1033B000216802463046091DFEF772FC206801684C
:1033C0004168009184F83850C16841F48071C1604F
:1033D0002068416941F0010141612068416941F083
:1033E000400141610020F8BDFFE70120FBE702201A
:1033F000F9E7000067480008A34800081D480008D6
:103400002DE9F05F012258495848FFF7ADFF564EAD
:1034100006F1040E37789EF8000087426FD0002333
:103420000121A6F1F002524C0625313FA2F18000A5
:103430004FF005094FF0070C4FF0080A4FF0400B12
:103440004A2F2AD2DFE807F0723F783F7E3F843F61
:103450008889898989898989252F2A2C2E313436B2
:10346000393C4146494D586054505C276B686F7534
:103470007B818989898989898989898989898989D2
:10348000893F3F3F3F3F3F893F3F646889893F3FD6
:103490003F3F53614370936123605EE0022102E08D
:1034A000032100E004215161F4E7C2F81490F1E730
:1034B0005561EFE7C2F814C0ECE7C2F814A0E9E7E1
:1034C0004170017204E0817147E04170032341E0E3
:1034D000116242E0417004233CE04170C0F8649006
:1034E000F6E741704566F3E74170C0F864C0EFE766
:1034F0004170C0F864A0EBE7417009232AE02EE098
:103500003520C2F8189001E0417126E0206024E0E7
:103510005720C2F818A0F9E758469561F6E743200E
:10352000C2F818C0F2E741700A2313E041700B2380
:1035300010E041700C230DE041700D230AE0417052
:103540000E2307E041700F2304E04170102301E0D7
:10355000417011234366BBE7C171FF2030703178A1
:103560008EF80010BDE8F09F700100204C0900208B
:103570002404014070472DE9F843044690F83900CF
:103580001F4616460D46202850D1B5B1AEB194F86D
:10359000380001284AD0012084F838004FF0000894
:1035A000C4F83C80212084F83900FEF715FDA6847C
:1035B0008146E68484F8388026E00120BDE8F8835F
:1035C000E08C401EE084A0684B46B0F5805F4FF071
:1035D00000024FF080012046009703D001F012FA5C
:1035E000E8B90DE001F00EFAC8B928882168C0F3E7
:1035F00008004860206908B16D1C05E0AD1C03E0BF
:10360000216815F8010B4860E08C0028D8D14B46A2
:10361000002240212046009701F0F4F908B1032070
:10362000CCE7202084F839000020C7E70220C5E756
:10363000FEE701684A69D24352050FD46FF48062F5
:103640004A61002140F8301F2022427381730269D1
:1036500042F00402026101730120704700207047AC
:103660002DE9F84F0446C06A1E4693460D46216870
:103670000A6842F480620A60082807D0012805D051
:1036800010F5803F02D0206B112804D1206801681A
:1036900041F4807101604FF001195B4600224946F8
:1036A0002046009600F0C6F84FF4007840B120683C
:1036B0000068C00501D5C4F840800320BDE8F88F3C
:1036C0002069DFF884A0B0F5804F0FD00620216874
:1036D00000EAD51747F0F000086133465A460AF170
:1036E0000601204600F0DAF858BB03E0E8B240F0EB
:1036F00001001CE02168E8B2086133465A46514691
:10370000204600F0CBF8E0B920684169816900915A
:10371000016841F4807101605B4600224946204601
:10372000009600F087F80028C1D147F0F100216829
:10373000086133465A465146204600F0AFF800284B
:10374000BCD00120BAE7000002000100F8B5044631
:10375000C06A1E460D461746082807D0012805D026
:1037600010F5803F02D0206B122804D12068016838
:1037700041F480710160134600224FF00111204690
:10378000009600F057F840B120680068C00502D5E7
:103790004FF4007020640320F8BD2069B0F5804F1D
:1037A0000ED00620216800EAD51040F0F000086134
:1037B00033463A460B49204600F070F878B902E0EB
:1037C00005F0FE0000E0E8B22168086105493346D3
:1037D0003A46891F204600F061F80028DCD001201D
:1037E000F8BD00000800010070B516460D460446FD
:1037F0000DE02046FFF71DFF08B1012070BD681CD9
:1038000005D0FEF7E9FB801BA84207D835B1206838
:103810004069C0434007ECD4002070BD002044F84C
:10382000300F20216173A073216941F020012161D3
:103830002073E2E72DE9F0471E4690460D46044608
:10384000C1F30747DDF8209008E0701C06D0FEF7B2
:10385000C3FBA0EB0900B0420FD876B12068012F5E
:1038600018D0806925EA00000004000C14D0002163
:103870004145EAD00020BDE8F087002044F8300F31
:1038800020216173A073216941F02001216120731F
:103890000120F0E74069E5E70121E9E72DE9F0477C
:1038A0009A4691460E46044600254FF02008C1F383
:1038B000074725E020684069C043400514D42068CC
:1038C000016841F40071016021686FF48060486113
:1038D000256384F83D8084F83E50206C40F004005D
:1038E000206484F83C501FE0B9F1FF3F08D0FEF798
:1038F00073FBA0EB0A0149450CD8B9F1000F09D0C0
:103900002068012F13D0806926EA00000004000C13
:103910000BD0CFE744F8305F84F80D80A5732069A1
:1039200040F02000206125730120BDE8F087406948
:10393000EAE72DE9F041002590460E46044620278F
:1039400017E04069C043C0060CD454F8301B6FF038
:103950001000486144F810596777A577206A206203
:10396000257717E0FEF738FBA0EB0800B04208D837
:103970003EB120684169C9434906E2D40020BDE850
:10398000F08144F8305F6773A573206940F0200030
:10399000206125730120F2E770B516460D460446F6
:1039A0000DE02046FFF745FE08B1012070BD681C00
:1039B00005D0FEF711FB801BA84207D835B120685F
:1039C0004069C0430006ECD4002070BD002044F8DC
:1039D000300F20216173A073216941F02001216122
:1039E0002073E2E77FB500211C480091019102910C
:1039F000194A039102604FF44032426001244FF0B3
:103A0000007204618260047680F82010144AC0E9D4
:103A10000A210225C561C16080F830404461FDF78C
:103A2000D6FE08B1FDF72FFD0820CDE900040720E0
:103A3000029069460948FDF715FE08B1FDF723FD20
:103A40000E20CDE9000569460448FDF70BFE00286D
:103A500001D0FDF718FD7FBD0020014010060020B9
:103A60000100000F0D4808B5016841F480010160B4
:103A70000068002200F48000009011463820FEF714
:103A8000E7FD3820FEF7D6FD002211463A20FEF76A
:103A9000DFFDBDE808403A20FEF7CCBD30380240DB
:103AA0002DE9F04186B014216846FCF7D3FB344879
:103AB0000024016841F002010160016801F0020187
:103AC0000591016841F004010160016801F0040101
:103AD0000591016841F001010160016801F00101F7
:103AE0000591016841F020010160016801F02001A9
:103AF0000591016841F040010160016801F0400159
:103B00000591016841F01001016000681D4F00F04F
:103B100010004FF480560590002231463846FEF7DB
:103B200056FADFF864800022A0214046FEF74FFAE3
:103B30004FF4885001258DE8310069461348FEF79F
:103B400057F90096CDE90154694638460394FEF7CB
:103B50004FF908200090CDE9015469460C480394C0
:103B6000FEF746F944F2A0000090CDE90154694601
:103B700040460394FEF73CF906B0BDE8F081000032
:103B800030380240000002400018024000080240A5
:103B900000040240144810B5124901601349416005
:103BA00000214FF480428160C0E9031241618161CC
:103BB000C1610162FEF756FA08B1FDF764FC00210D
:103BC0000948FEF70FFA08B1FDF75DFC0021064831
:103BD000FEF729FA002803D0BDE81040FDF753BCDA
:103BE00010BD0000005C0040B8060020A086010067
:103BF00010B588B01C216846FCF72CFB1548144909
:103C0000002401600421C0E901144FF47A71C0E975
:103C100003148461FFF76EF808B1FDF734FC0D481A
:103C2000FFF7AAFA08B1FDF72EFC6020CDE90004E9
:103C300002940022694607480494FFF735FA08B158
:103C4000FDF721FC0348FFF75DF908B010BD000047
:103C5000004401408C08002010B588B01C21684643
:103C6000FCF7F8FA15481449002401600421C0E962
:103C700001144FF47A71C0E903148461FFF73AF834
:103C800008B1FDF700FC0D48FFF776FA08B1FDF723
:103C9000FAFB6020CDE9000402940022694607483F
:103CA0000494FFF701FA08B1FDF7EDFB0348FFF7B5
:103CB00029F908B010BD000000480140CC080020E0
:103CC00010B588B01C216846FCF7C4FA15481449A1
:103CD000002401600421C0E901144FF47A71C0E9A5
:103CE00003148461FFF706F808B1FDF7CCFB0D481B
:103CF000FFF742FA08B1FDF7C6FB6020CDE90004EA
:103D000002940022694607480494FFF7CDF908B1F0
:103D1000FDF7B9FB0348FFF7F5F808B010BD000048
:103D2000002000400C09002010B592B000240F9430
:103D30001C2108A81094FCF78DFA20216846FCF796
:103D400089FA20481E4901600421C0E901144FF49A
:103D50007A71C0E9031444618461FFF70DFA08B178
:103D6000FDF791FB0F940FA916481094FEF77AFF08
:103D700008B1FDF788FB6020CDE908040A940C9493
:103D80000D940C2208A90F480E94FFF78DF908B185
:103D9000FDF779FB00944FF40050CDE90440029404
:103DA00001940394694607480794FEF731FF08B170
:103DB000FDF769FB0348FFF7A5F812B010BD00003E
:103DC000000001400C07002010B58AB000240794C1
:103DD0001C2168460894FCF73DFA1E484FF08041CC
:103DE00001600421C0E901144FF47A71C0E90314A1
:103DF0008461FFF7C1F908B1FDF745FB079407A9F6
:103E000014480894FEF72EFF08B1FDF73CFB602034
:103E1000CDE900040294002269460E480494FFF79D
:103E200043F908B1FDF72FFB082269460948FFF75F
:103E30003BF908B1FDF727FB0C2269460548FFF75F
:103E400033F908B1FDF71FFB0248FFF75BF80AB032
:103E500010BD00004C07002010B58AB00024079464
:103E60001C2168460894FCF7F5F91A4818490160C6
:103E70000421C0E901144FF47A71C0E9031484618C
:103E8000FFF77AF908B1FDF7FEFA079407A9114880
:103E90000894FEF7E7FE08B1FDF7F5FA6020CDE9DA
:103EA00000040294002269460A480494FFF7FCF8D3
:103EB00008B1FDF7E8FA042269460648FFF7F4F86E
:103EC00008B1FDF7E0FA0348FFF71CF80AB010BD8F
:103ED000000400408C07002010B58CB024216846F7
:103EE000FCF7B8F900241648099414490A94C0E96B
:103EF00000144FF6FF71C0E90241046184610320A0
:103F0000CDE900040120CDE902040494CDE9054087
:103F1000079469460A480894FEF738FF08B1FDF790
:103F2000B2FA099409A906480A94FEF79BFE0028F4
:103F300001D0FDF7A8FA0CB010BD00000008004049
:103F4000CC07002010B58AB0002407941C216846D5
:103F50000894FCF77FF91648144901600421C0E970
:103F600001144FF47A71C0E903148461FFF704F976
:103F700008B1FDF788FA079407A90D480894FEF7E1
:103F800071FE08B1FDF77FFA6020CDE900040294CC
:103F90000822694606480494FFF786F808B1FDF741
:103FA00072FA0348FEF7AEFF0AB010BD000C0040E5
:103FB0000C08002010B58CB024216846FCF74AF9A3
:103FC00000241648099414490A94C0E900144FF6D5
:103FD000FF71C0E902410461446184610320CDE9BD
:103FE00000040120CDE902040494CDE905400794C2
:103FF00069460A480894FEF7C9FE08B1FDF743FA7E
:10400000099409A905480A94FEF72CFE002801D05E
:10401000FDF739FA0CB010BD000401404C08002037
:104020000C4810B50A4901604FF46131416000212C
:1040300081600C22C160C0E904128161C161FFF797
:104040000EF9002803D0BDE81040FDF71CBA10BDE2
:10405000001001404C090020FEE7000010B50246A8
:104060000AA10C4800F002FD0A48FCF7FEF882B2F3
:10407000642308490848FFF77EFA6423BDE810402E
:10408000032206490448FFF776BA000070616765AD
:1040900020256400300300204C0900204800002047
:1040A00010B502460AA10D4800F0E0FC0B48FCF7F1
:1040B000DCF882B2642309490948FFF75CFA6423FB
:1040C000BDE81040032207490548FFF754BA000035
:1040D00070302E7069633D256400000030030020BD
:1040E0004C0900204800002010B50B4602460AA1EA
:1040F0000C4800F0BBFC0B48FCF7B7F882B2642315
:1041000008490948FFF737FA6423BDE81040032245
:1041100006490548FFF72FBA25732E76616C3D25B9
:1041200064000000300300204C09002048000020FB
:1041300008B500920B4602460AA10E4800F096FC14
:104140000C48FCF792F882B264230A490A48FFF748
:1041500012FA01B064230322084907485DF804EB12
:10416000FFF709BA6164642025642C25642C25645A
:1041700000000000300300204C090020480000200F
:1041800010B50B4602460AA10C4800F06FFC0B4824
:10419000FCF76BF882B2322308490948FFF7EBF9C4
:1041A0003223BDE81040032206490548FFF7E3B972
:1041B00025732E76616C3D256400000030030020DD
:1041C0004C0900204800002010B50B4602460AA109
:1041D0000C4800F04BFC0B48FCF747F882B2642314
:1041E00008490948FFF7C7F96423BDE810400322D6
:1041F00006490548FFF7BFB925732E7478743D2230
:1042000025732200300300204C09002048000020C4
:1042100010B50B4602460AA10C4800F027FC0B48DB
:10422000FCF723F882B2322308490948FFF7A3F9C3
:104230003223BDE81040032206490548FFF79BB929
:1042400025732E62636F3D2564000000300300205B
:104250004C0900204800002010B50B4602460AA178
:104260000C4800F003FC0B48FBF7FFFF82B232233F
:1042700008490948FFF77FF93223BDE810400322BF
:1042800006490548FFF777B925732E70636F3D2502
:1042900064000000300300204C090020480000208A
:1042A000704770472DE9F041374D4FF000072DED75
:1042B000028B05F58074287C95F82F10884320D058
:1042C00003F03EF851EC100BFCF79BF90646A06298
:1042D000606A9FED2E1A301A00EE100AF8EE400ABE
:1042E00081EE200A10EE100AFCF7A4F941EC100B45
:1042F00000F0FAFB51EC100BFCF7E0F9E0622F74D0
:10430000666295F82F00E97B9FED218A0842F2EE64
:10431000048A26D003F014F851EC100BFCF771F965
:10432000E06194ED0B0A9FED1B1A1B49C1EE000AD8
:10433000C1ED050A626A801A00EE100AB8EE401A52
:1043400081EE080A81ED060A70EEC00AC1ED070A87
:1043500080EE801A81ED081A21EE280A84ED080A01
:10436000EF7394ED030AD4ED0B0AB8EEC00A20EE09
:10437000200AC0EE080A20EEA80A84ED0C0ABDEC63
:10438000028BBDE8F08100000000002000606A4759
:1043900000007A4400007042000200207047FEF7DF
:1043A000EFB8000010B592B030216846FBF752FF1D
:1043B00014210CA8FBF74EFF15480024016841F0BA
:1043C00080510160006800F0805011901148016830
:1043D00021F4404141F4804101600068069400F4FA
:1043E0004040119002200090012003901020049082
:1043F0006846FEF74BFA0F20CDE90C040E940F949B
:1044000000210CA81094FEF755F912B010BD000061
:1044100040380240007000400548016841F47001D6
:10442000016003494FF00060803908607047000068
:1044300088ED00E0F0B50268254C264D264E274F4A
:10444000274B4FF0804CA04209D0604507D0A842CE
:1044500005D0B04203D0B84201D0984204D122F036
:10446000700E4A6842EA0E02A0421BD0604519D085
:10447000A84217D0B04215D0B84213D0984211D0FC
:10448000184DA8420ED0184DA8420BD0174DA84287
:1044900008D0174DA84205D0164DA84202D0164D9F
:1044A000A84203D122F44075CA682A434D6922F01C
:1044B00080022A4302608A68C2620A688262A0425D
:1044C00001D0984201D10969016301214161F0BD28
:1044D000000001400004004000080040000C0040C3
:1044E00000040140004001400044014000480140F8
:1044F00000180040001C00400020004010B501F0F2
:104500001F030121046A99408C430462016A9A40A6
:104510001143016210BD0000F0B5026A22F00102F1
:104520000262036A42688469124E24F073050C68C3
:104530002C4323F002058B682B430D4DA84201D07C
:10454000B04205D123F00807CB683B4323F00403B6
:10455000A84201D0B04205D14D6922F44072154302
:104560008A692A4342608461496841630362F0BDFD
:104570000000014000040140F0B5026A22F0100280
:104580000262026A436884690D6824F4E64444EADE
:1045900005248D6822F0200242EA05120F4D104ECC
:1045A000A84201D0B04206D1CF6822F0800242EA90
:1045B000071222F04002A84201D0B04207D14D6953
:1045C00023F4406343EA85038D6943EA850343602E
:1045D0008461496881630262F0BD0000000001400F
:1045E00000040140F0B5026A22F480720262026A9D
:1045F0004368C46922F4007224F073050C68124EFB
:104600002C438D6842EA05220E4DA84201D0B042EB
:1046100006D1CF6822F4006242EA072222F48062C7
:10462000A84201D0B04207D14D6923F4405343EA78
:1046300005138D6943EA05134360C4614968C1638A
:104640000262F0BD000001400004014030B5026A82
:1046500022F480520262046A4268C3690D6823F43E
:10466000E64343EA05238D6824F4005444EA053404
:10467000084DA84202D0084DA84204D14D6922F449
:10468000804242EA85124260C36149680164046263
:1046900030BD000000000140000401402DE9F04160
:1046A0002DED048B9FED4E8B4F4E53EC182BA6F146
:1046B000800496ED1E9B51EC190BFBF784FEFBF773
:1046C00081FF9FED4A0BE06653EC102B51EC190B68
:1046D000FBF7C4FF0CD29FED470B53EC102B96ED6C
:1046E0001E0B51EC100BFBF7D1FF01D20020E0664E
:1046F000E06E4FF47A714843FBF746FF53EC182BFA
:10470000FBF7D3FE9FED3D1B53EC112BFBF7CDFECA
:10471000354D8035C5E90A0102F012FE51EC100B4F
:10472000FBF76FFF0746E065206E381A6066FBF7FF
:104730003CFF95ED0A1B53EC112BFBF744FE95ED66
:10474000021B53EC112BFBF797FD41EC180B9FED6F
:104750002D0B85ED028B53EC102B2766FBF733FEF8
:104760009FED2A1B53EC112BFBF786FDFBF72AFF6D
:10477000A5F520711D28886501DA1D2002E0A52815
:1047800001DDA5208865206FFBF7FEFE53EC182B9A
:10479000FBF764FF06D295ED020B51EC100BFBF713
:1047A00011FF206795ED020B1A4885ED040B806F11
:1047B000FBF7EAFE95ED0C1B53EC112BFBF703FE08
:1047C000FBF77CFF00EE100ADFED130A80EE201AE3
:1047D00086ED091ABDEC048BBDE8F04102F0E0BEA5
:1047E0000000000000002440000200200000000043
:1047F0000000F03F000000000000F0BF00000000DB
:10480000004CED409CC420B07268C13F0000000025
:1048100000003D400001002000007A4470B5846B28
:104820002068406994F83910C0F3C0100025212990
:1048300004D118B1E584204600F046F820684069AC
:1048400094F83A10C0F38010222904D118B1E585FC
:10485000204600F02BF8E06B40F01000E0632046AB
:10486000FEF7FCFC70BD10B50146806B0968096855
:10487000C90513D40021C1850168CA6822F4807279
:10488000CA6001684A6922F001024A6101684A6906
:1048900022F040024A61202180F83A10FEF7B0FD74
:1048A00010BD10B5806BFEF765FE10BD0168CA68CB
:1048B00022F49072CA6001684A6922F001024A61DA
:1048C000202180F83A1070470168CA6822F0C002BF
:1048D000CA60202180F83910704700002DE9F041AE
:1048E000044600680169E26821F440511143016106
:1048F0002169A068E269084361691143084321689E
:10490000CA6849F20C639A430243CA60206841694D
:10491000A26921F4407111434161E06919276425BE
:104920003226B0F5004F354A354920684FF000086F
:1049300006D0884201D0904236D1FDF765FF35E0C0
:10494000884201D0904202D1FDF75EFF01E0FDF701
:104950004BFF61684A18A0FB070148EB0803FBF70F
:1049600041FC0146B0FBF5F00201B1FBF5F06FF040
:104970001803584301EB800006EBC000B0FBF5F0D4
:1049800000F0F80002EB4002B1FBF5F0584301EBF8
:10499000800006EBC000B0FBF5F000F007002168D6
:1049A00010448860BDE8F081FDF71EFF61688B0F41
:1049B0008A00A0FB0701FBF715FC0146B0FBF5F0F0
:1049C0006FF01802504301EB800006EB0010B0FBC3
:1049D000F5F000F0F002B1FBF5F002EB0012B1FBD4
:1049E000F5F06FF01803584301EB800006EB001060
:1049F000B0FBF5F000F00F00D1E70000001401401B
:104A0000001001402DE9F041984617460E46044635
:104A1000069D1DE0681C1BD02DB1FDF7DDFAA0EB53
:104A20000800A84214D92068C16821F4D071C1607F
:104A30002068416921F001014161202084F839009A
:104A400084F83A00002084F838000320BDE8F081A3
:104A50002068006836EA000004D00020B842D9D0AF
:104A60000020F3E70120F9E7FEE700000FB4084B50
:104A700010B504A902AA039800F0DCFF044602A9BD
:104A8000002001F0B3F8204610BC5DF814FB0000D4
:104A9000ED5B000803B401984100009850EAC12082
:104AA00018BF04204A0D18BF40F0010040F2FF7209
:104AB000B2EB515F08BF40F00200012808BF05209B
:104AC00002B070470907090E002804DB00F1E0205E
:104AD00080F80014704700F00F0000F1E02080F82B
:104AE000141D7047000000002DE9F0412DED020B70
:104AF0009FED3D0B2DED028B9FED3D8BDDE90254CB
:104B0000C4F30A50A0F2FF36142E37DA002E18DA5A
:104B100053EC102B9DED020B51EC100BFBF7ACFB93
:104B200053EC182BFBF7B2FD57D2002CBCBF4FF053
:104B30000044002551DB54EA050018BF2E4C1BD160
:104B40004BE02E4820FA06F704EA070028431FD05E
:104B500053EC102B9DED020B51EC100BFBF78CFB73
:104B600053EC182BFBF792FD37D2002C03DD4FF4EA
:104B70008010F0400444BC4300252EE0332E07DCB7
:104B8000A6F114004FF0FF3121FA00F73D4206D1A3
:104B90009DED020BBDEC028B02B0BDE8F08153EC41
:104BA000102B9DED020B51EC100BFBF709FC53ECA5
:104BB000182BFBF76BFD10D2002C0DDD142E08BF57
:104BC000641C09D0C6F13400012101FA00F0284428
:104BD000A84238BF641C0546BD43CDE902549DED93
:104BE000020BD7E7000000009C7500883CE4377E8C
:104BF00000000000000000000000F03FFFFF0F0079
:104C00002DED020B019820F0004001909DED000B6E
:104C100002B07047000000002DE9F04D2DED040BAF
:104C20002DED0E8B96B0DDE92550279CDDF890A088
:104C300025F0004624F00048BAF1000F14BF01210E
:104C4000002101EB4502FC4953184A1093422AD334
:104C5000002814BF0123002303EB44030B44F7494E
:104C60008B4220D358EA00019FEDF59B76D0DFF808
:104C7000D8B35D4503D1BAF1000F05D188E0BAF190
:104C8000000F08BF002100D0012101EB450111F503
:104C9000001F08D8002814BF0121002101EB4401A6
:104CA00011F5001F0BD99DED261B9DED240B16B0B1
:104CB000BDEC0E8B04B0BDE8F04D00F069BE0027DE
:104CC000002DBCBFE149884521DAE1498845A8BFEC
:104CD00002271CDAC3451ADCDE4901EB28511429EE
:104CE00008DDC1F1340220FA02F101FA02F2824237
:104CF0000DD108E058B9C1F1140228FA02F101FA05
:104D000002F2424503D101F00101C1F1020756EA66
:104D10000A0124D1002C22DA002D18BF022F01D065
:104D2000012F0AD0022000F07FFE16B0BDEC0E8BE2
:104D300004B0BDE8F04D00F013BE022000F074FE98
:104D400000F00EFE51EC100B81F0004141EC100B15
:104D500016B0BDEC0E8B04B0BDE8F08D18E09FEDF1
:104D6000BEAB9FEDBF8B002871D1B848804522D1E2
:104D700005F1804010F5801008BFBAF1000F07D090
:104D8000B3450ADC002CA8BF9DED260BE0DA0DE050
:104D9000B0EE490AF0EE690ADAE7002C06DA9DED7A
:104DA000260B51EC100B81F000416FE0AE487844C7
:104DB00090ED000BCCE7D8454DD1002C48DA2EB150
:104DC00086423AD1BAF1000F42D126E0BAF1000F83
:104DD00013D0022000F028FE00F0F6FD8DED020B4E
:104DE0009DED240B8DED000B10EE900A039961F3FD
:104DF0001E0003909DED020BAAE78DED02AB9DED29
:104E0000240B1AEE901A10EE900A8DED000B61F350
:104E10001E0003909DED020B9AE78DED028B9DED38
:104E2000240B18EE901A10EE900A8DED000B61F332
:104E30001E0003909DED020B8AE709DA9DED240B1D
:104E400051EC190B53EC102BFBF72FFB1EE020E06D
:104E50009DED240B7CE786421BDAB4F1804F0DD028
:104E6000A4F10050B0F1FF5013D1002D11DB9DEDE6
:104E7000240B51EC100B02F081FC07E09DED240B9C
:104E800053EC102B51EC100B00F0C2BC41EC100B9A
:104E90005EE79DED240B51EC100B01F04BFCBAF1D9
:104EA000000FCDE90E0142D19FED710B46B3A6F183
:104EB000E040B0F17F600CD05E4538D1002D00DAC3
:104EC000A7B3022F0CBF01204FF0FF30FBF75CFBB4
:104ED000DCE7002D01DD002C0DDA002D01DD002CBA
:104EE0001FDB002D16DA002C14DB012F08BF9FED0D
:104EF000620B3FF42DAFB0EE4A0AF0EE6A0A27E7E4
:104F0000022F18BF002D0CD0012F0AD1002DFFF663
:104F10001FAF06E0002DB8BF002C08DA012F3FF4C8
:104F200017AFB0EE480AF0EE680A11E71BE0012067
:104F300000EBE57050EA070115D0791EB0EE498A02
:104F4000F0EE698A084308BF9FED4D8B4E4800255F
:104F5000804570DD4D494E48884514DDB0420DDB7B
:104F6000002C19DB2FE0012000F05EFD16B0BDEC37
:104F70000E8B04B0BDE8F04D00F016BDB34502DC69
:104F8000002C09DC1FE0864202DA002C1BDA03E069
:104F90005E452BDD002C16DD022000F045FD00F003
:104FA00013FD8DED020B53EC1A2B51EC180BFBF794
:104FB0000AFACDE900010399019861F31E000390FC
:104FC0009DED020BC4E6022000F02EFD00F00CFD6A
:104FD00010EE901A18EE900A8DED020B8DED008BFD
:104FE00061F31E0003909DED020BB1E69DED0E0BEB
:104FF00053EC192B51EC100BFBF7DFF99FED260B4F
:10500000CDE9080153EC102B9DED080B51EC100B72
:10501000FBF7D9F99FED221B53EC112BFBF7D0F9CD
:105020009DED081B53EC112BFBF7CDF99FED1E1BDB
:1050300053EC112B3CE08CE0FFFF1F00FFFF0F0043
:10504000000000000000F03F0000F03F0000F07F93
:105050000000404301FCFFFF000000000000F07F63
:105060000000000000000000E62A00000000000030
:105070000000000000000080000000000000F0FFC1
:10508000000000000000F0BF0000E0410000F0431D
:10509000FFFFEF3F00000000000000000000D03FD5
:1050A000555555555555D53F000000000000E03FCF
:1050B000FBF786F99DED080B41EC1A0B53EC102B16
:1050C00051EC100BFBF77FF953EC1A2BFBF77BF934
:1050D00041EC1A0B9FEDFE0B53EC102B9DED080BD2
:1050E00051EC100BFBF76FF941EC1B0B9FEDFA0B2A
:1050F00051EC1A0B53EC102BFBF765F941EC1A0B32
:105100009FEDF70B53EC102B9DED080B51EC100BA2
:10511000FBF759F953EC1A2BFBF74FF941EC1A0B3B
:1051200051EC1B0B53EC1A2BFBF7A6F80690CDE9BC
:1051300006519DED060B53EC1B2B51EC100BFBF7AE
:105140003CF953EC1A2BFBF73BF941EC100B00F048
:10515000A1B90020B6F5801F0EDA9FEDE30B53ECEA
:10516000102B9DED0E0B51EC100BFBF72CF9CDE93C
:105170000E016FF034000E4600EB2650A0F2FF3710
:10518000C6F31300DA4940F07F6646F04056884285
:10519000D8BF002408DDD7498142C8BF012403DC01
:1051A0000024A6F580167F1CD348784400EBC40089
:1051B0000F9690ED00CB9DED0E0B53EC1C2B51EC9C
:1051C000100BFBF7FAF89DED0E0B41EC1B0B53ECAB
:1051D0001C2B51EC100BFBF74FF841EC100B51EC72
:1051E000190B53EC102BFBF760F941EC1D0B51EC44
:1051F0001B0B53EC1D2BFBF7E6F841EC1A0BBF48D9
:105200008DED10AB7844109590ED000B4FF00050F1
:1052100040EA660000EB84408DED080B00F50020AD
:1052200009909DED080B53EC1C2B51EC100BFBF778
:10523000C4F89DED0E1B53EC112BFBF7C1F841ECAC
:10524000100B53EC102B9DED100B51EC100BFBF7DA
:10525000BAF89DED080B41EC1C0B53EC102B9DEDA7
:10526000100B51EC100BFBF7AEF853EC1B2BFBF7BC
:10527000A7F853EC1C2BFBF7A0F853EC1D2BFBF706
:10528000A2F841EC1C0B53EC1A2B51EC1A0BFBF758
:105290009AF841EC1B0B9A480621B0EE4B0AF0EE4F
:1052A0006B0A784400F0E0FAB0EE401AF0EE601AB3
:1052B000B0EE41DAF0EE61DA53EC1B2B51EC1B0B34
:1052C000FBF781F853EC1D2BFBF77DF89DED100BE0
:1052D00041EC1B0B53EC1A2B51EC100BFAF7CCFFE3
:1052E00053EC1C2BFBF76FF853EC1B2BFAF7C4FFA6
:1052F0009DED100B41EC1B0B53EC102B51EC100BE4
:10530000FBF761F841EC1D0B9FED7FEB53EC1E2B7F
:10531000FAF7B2FF53EC1B2BFAF7AEFF0890CDE97A
:1053200008519DED080B53EC1E2B51EC100BFBF7B5
:1053300044F853EC1D2BFBF740F853EC1B2BFBF709
:105340003FF89DED080B41EC1D0B53EC102B9DED30
:10535000100B51EC100BFBF736F841EC1B0B53EC28
:105360001A2B51EC1D0BFBF72EF89DED080B41ECB1
:105370001A0B53EC102B51EC1C0BFBF724F853ECDD
:105380001A2BFAF779FF41EC1A0B51EC1B0B53EC7B
:105390001A2BFAF771FF0C90CDE90C519DED0C0B17
:1053A00053EC1B2B51EC100BFBF707F853EC1A2BAB
:1053B000FBF706F841EC1B0B9FED550B53EC102B44
:1053C0009DED0C0B51EC100BFAF7FDFF41EC1A0BA5
:1053D0009FED510B51EC1B0B53EC102BFAF7F3FF25
:1053E00041EC1B0B9FED4E0B53EC102B9DED0C0B6A
:1053F00051EC100BFAF7E7FF53EC1B2BFAF73CFFCD
:1054000041EC100B4848784400EBC40090ED001BC1
:1054100051EC100B53EC112BFAF72EFF41EC1B0B48
:105420003846FBF7B1F8CDE9080153EC1B2B51ECE2
:105430001A0BFAF721FF41EC100B3C48784400EBC3
:10544000C40090ED00CB51EC100B53EC1C2BFAF781
:1054500013FF9DED081B53EC112BFAF70DFF06907F
:10546000CDE906519DED080B53EC102B9DED060B7D
:1054700051EC100BFAF7A1FF53EC1C2BFAF79DFF30
:1054800053EC1A2BFAF799FF53EC1B2BFAF798FF02
:1054900041EC100B9DED261B53EC102B8DED001BEA
:1054A00000959DED260B51EC100BFAF78CFF9DED4E
:1054B000000B41EC1A0B53EC102B9DED260B51EC1D
:1054C000100BFAF77AFF9DED061B53EC112B2FE022
:1054D000000000604715F73FFE822B654715F73F38
:1054E00044DF5DF80BAE543E000000000000404376
:1054F0008E9803007AB60B0062260000902600000A
:105500009A25000000000000000000000000084094
:10551000000000E009C7EE3FFD033ADC09C7EE3F9B
:10552000F5015B14E02F3EBE26240000E0230000BE
:10553000FAF749FF53EC1A2BFAF79EFE9DED060B86
:1055400041EC1A0B53EC102B9DED000B51EC100BA2
:10555000FAF739FFCDE90C019DED0C0B51EC1A0B5C
:1055600053EC102BFAF788FECDE902010C46AA494C
:105570008C422FDB611A084318D19DED0C0B53ECC4
:10558000102B9DED020B51EC100BFAF716FF41ECBE
:105590001B0B9FEDA30B51EC1A0B53EC102BFAF7DE
:1055A0006BFE53EC1B2BFBF771F82DD2022000F0A1
:1055B0003BFA00F009FA10EE901A18EE900A8DED01
:1055C000020B8DED008B61F31E0003909DED020B2D
:1055D000FFF7BEBB944A24F00041914214D3934993
:1055E000214408437FF4EFAC9DED0C0B53EC102BE2
:1055F0009DED020B51EC100BFAF7DFFE53EC1A2B6A
:10560000FBF744F87FF6DFAC24F000408849894A74
:10561000002601EB205182422BDA481C4FF4801106
:1056200021FA00F02044844AC0F30A517A44A1F2DE
:10563000FF3192ED000B814A8DED080BCA4020EA44
:105640000202C0F3130040F48010C1F1140120FAEB
:1056500001F60992002CB8BF76429DED080B53EC81
:10566000102B9DED0C0B51EC100BFAF7A6FECDE9BB
:105670000C019DED0C0B51EC1A0B53EC102BFAF7AF
:10568000FBFD9FED6F0B0890CDE9085153EC102BFB
:105690009DED080B51EC100BFAF795FE41EC1B0B3E
:1056A0009FED690B53EC102B9DED080B51EC100B8B
:1056B000FAF789FE9DED0C0B41EC1C0B53EC102B03
:1056C0009DED080B51EC100BFAF777FE53EC1A2BFB
:1056D000FAF776FE9FED5E1B53EC112BFAF773FE83
:1056E00053EC1C2BFAF7C8FD41EC1A0B51EC1B0BC9
:1056F00053EC1A2BFAF7C0FDCDE902019DED020B28
:1057000053EC1B2B51EC100BFAF757FE53EC1A2BF2
:10571000FAF756FE9DED020B41EC1A0B53EC102BE1
:1057200051EC100BFAF74FFECDE908014A489DED08
:10573000080B0521784400F097F89DED081B51EC0B
:10574000100B53EC112BFAF73EFE9DED021B53ECB0
:10575000112BFAF735FECDE906019DED020B53EC56
:105760001A2B51EC100BFAF72EFE53EC1A2BFAF70A
:1057700083FD9FED3B0B41EC1A0B53EC102B9DED81
:10578000060B51EC100BFAF718FE9DED060B41ECE1
:105790001B0B53EC102B9DED020B51EC100BFAF789
:1057A00012FE53EC1B2BFAF780FE53EC1A2BFAF780
:1057B00004FE9DED021B53EC112BFAF7FEFD53EC9A
:1057C000192BFAF7FDFDCDE9020101EB0650011599
:1057D0000029C8BF039015DC9DED020B324651EC49
:1057E000100BFBF762F8FFF755F9042808BF00F02B
:1057F000FBF832469DED020B51EC100BFBF755F810
:10580000CDE902019DED020B51EC180B53EC102B6E
:10581000FAF7D9FDFFF73ABB000090400000000006
:10582000FE822B654715973C00CC904000346F3FBB
:1058300001FCFFFF0000E03F68220000FFFF0F00B7
:1058400000000000432EE63F396CA80C615C20BECE
:10585000EF39FAFE422EE63F38210000000000003A
:10586000000000000000004070B504462DED028BE2
:105870004D1E00EBC500B0EE408AF0EE608A90ED60
:10588000000B35F0060017D053EC182B51EC100B21
:10589000FAF799FD41EC100B6D1E04EBC50090ED7D
:1058A000001B51EC100B53EC112BFAF7E5FC41EC0B
:1058B000100B35F00600E7D1022D36D0042D1CD098
:1058C000062D1CBFBDEC028B70BD53EC182B51ECA8
:1058D000100BFAF778FD94ED0A1B53EC112BFAF735
:1058E000CBFC53EC182BFAF76EFD94ED081B53EC30
:1058F000112BFAF7C1FC41EC100B53EC182B51ECB7
:10590000100BFAF760FD94ED061B53EC112BFAF720
:10591000B3FC53EC182BFAF756FD94ED040B53EC43
:10592000102BFAF7A9FC41EC100B53EC182B51EC9F
:10593000100BFAF748FD94ED021B53EC112BFAF70C
:105940009BFC53EC182BFAF73EFD94ED001B53EC37
:10595000112BFAF791FCBDEC028B41EC100B70BDE2
:105960009FED070B10B553EC102B9FED070B51EC7F
:10597000100BFAF79AFD41EC100B10BD000000006F
:105980000000000000000000000000000000F03FE8
:1059900010B553EC112B51EC100BFAF76DFC41ECE8
:1059A000100B10BD000000009FED050B10B553EC6F
:1059B000102B51EC100BFAF778FD41EC100B10BDD9
:1059C00000000000000000009FED050B10B553EC37
:1059D000102B51EC100BFAF7F6FC41EC100B10BD3C
:1059E00000000000000000709FED050B10B553ECA7
:1059F000102B51EC100BFAF7E6FC41EC100B10BD2C
:105A0000000000000000001002E008C8121F08C1DA
:105A1000002AFAD170477047002001E001C1121F2F
:105A2000002AFBD170470000014908607047000060
:105A3000280300202DE9FF4F8BB09A460F460546FC
:105A4000002606E025280BD052460D9990476D1C84
:105A5000761C28780028F5D10FB03046BDE8F08FCD
:105A60000024A0460122604900E0044315F8013FEC
:105A7000203B02FA03F00842F7D128782E2817D1EC
:105A800015F8010F44F004042A280ED06FF02F02FD
:105A90002878A0F1300109290AD808EB880102EB27
:105AA000410100EB01086D1CF2E757F8048B6D1CF7
:105AB000287869283ED006DC0028CDD063280BD09A
:105AC000642804D136E0732810D075284BD0524694
:105AD0000D999047761C85E017F8040B8DF80000AF
